:1000030000010002000400080010002000400080EE
:1000130001000200040008001000200040008000DE
:0C02C800010C00010F00011800010D00E6
:10023300D280759850438920438780758DF3758BE1
:10024300F3D28ED2ACD2AFE4F53BF53CAE3CEE2517
:10025300E0241BF8E6F4FCEE25E0241AF8E6F4FDAE
:10026300E53C25E0FFE53B33FE74032FF582740084
:100273003EF583E493FB74042FF58274003EF5830B
:10028300E493F540AF04120113053CE53C7002050D
:0E0293003BC39410E53B6480948040B080A98A
:03002300020026B2
:10002600C0E0C0F0C083C082C0D075D000C000C0A0
:0D00360001C002C003C004C005C006C00721
:100043002098030200F885993AC298C299E50F6493
:100053000160030200D8E50C64027023E50D64021D
:10006300701DAF3A1202A1AE180518741A2EF8A625
:1000730007E51864207008F50CF50DF50FF518E584
:100083000C6403701EE50D64027018853A0EE50ECC
:1000930064317004C2808002D280750C00750F0039
:1000A300750D00AF3A7E00EF64AB700BE50D640194
:1000B3007005750C02800FEF64AC4E700EE50D6495
:1000C300017008750C03750D02800AE50D6401705B
:1000D30004F50FF50DAF3AEF64FE600FEF64FC60BB
:1000E3000AEF64FB6005EF64F9700AE50D700675AD
:0500F3000F01750D0175
:1000F800D007D006D005D004D003D002D001D0005C
:0B010800D0D0D082D083D0F0D0E03205
:1002A100E4FEFDEDC39408748094805017EF54016F
:1002B100FCEFC313FFEC2EFEED64076004EE25E0B6
:0602C100FE0D80DFAF0618
:0102C7002214
:02011300A9073A
:10011500E4FFEFC39408748094805016E9C4131368
:1001250013540124FF92B4E925E0F9C2B6D2B60F03
:1001350080E0E4FFEFC39408748094805016EDC40A
:10014500131313540124FF92B4ED25E0FDC2B6D27A
:10015500B60F80E0E4FFEFC39408748094805016D6
:10016500EBC4131313540124FF92B4EB25E0FBC237
:10017500B6D2B60F80E0E4FFEFC394087480948094
:100185005019E540C4131313540124FF92B4E540FC
:1001950025E0F540C2B6D2B60F80DDC2B5D2B5C2F4
:0101A500B5A4
:0101A6002236
:030000000201A753
:0C01A700787FE4F6D8FD7581400201EE7F
:1001B300020233E493A3F8E493A34003F68001F22D
:1001C30008DFF48029E493A3F85407240CC8C3334D
:1001D300C4540F4420C8834004F456800146F6DF1C
:1001E300E4800B01020408102040809002C8E47EE2
:1001F300019360BCA3FF543F30E509541FFEE49311
:10020300A360010ECF54C025E060A840B8E493A3D7
:10021300FAE493A3F8E493A3C8C582C8CAC583CA02
:10022300F0A3C8C582C8CAC583CADFE9DEE780BEBA
:0102D4000029
:00000001FF
