:1000030000010002000400080010002000400080EE
:1000130001000200040008001000200040008000DE
:0C028200010C00010F00011800010D002C
:10018800D280759850438920438780758DF3758B8D
:10019800F3D28ED2ACD2AFE4F53BF53CAE3CEE25C3
:1001A800E0241BF8E6F4FCEE25E0241AF8E6F4FD5A
:1001B800E53C25E0FFE53B33FE74032FF582740030
:1001C8003EF583E493FB74042FF58274003EF583B7
:1001D800E493F540AF041201F6053CE53C700205D6
:0E01E8003BC39410E53B6480948040B080A936
:1001F600E4FEEFC4131313540124FF92B4EF25E079
:10020600FFC2B6D2B60EBE08E9E4FEEDC413131360
:10021600540124FF92B4ED25E0FDC2B6D2B60EBE5F
:1002260008E9E4FEEBC4131313540124FF92B4EB64
:1002360025E0FBC2B6D2B60EBE08E9E4FEE540C430
:10024600131313540124FF92B4E54025E0F540C290
:0D025600B6D2B60EBE08E6C2B5D2B5C2B52E
:010263002278
:03002300020026B2
:10002600C0E0C0F0C083C082C0D075D000C000C0A0
:0D00360001C002C003C004C005C006C00721
:100043002098030200E185993AC298C299E50F64AA
:10005300017077E50CB40225E50DB40220AF3A1226
:100063000264AE180518741A2EF8A607E518B42012
:100073000C750C00750D00750F00751800E50CB4B8
:10008300031CE50DB40217853A0EE50EB43104C224
:10009300808002D280750C00750F00750D00E53A63
:1000A300B4AB0AE50DB40105750C02800DE53AB455
:1000B300AC0DE50DB40108750C03750D02800BE55D
:1000C3000DB40106750F00750D00E53AF46005E502
:0E00D3003AB4FC0AE50D7006750F01750D01BB
:1000E100D007D006D005D004D003D002D001D00073
:0B00F100D0D0D082D083D0F0D0E0321D
:10026400E4FEFDEF5401FCEFC313FFEC2EFEED643E
:0D027400076004EE25E0FE0DBD08E8AF06B2
:01028100225A
:030000000200FCFF
:0C00FC00787FE4F6D8FD758140020143D6
:10010800020188E493A3F8E493A34003F68001F284
:1001180008DFF48029E493A3F85407240CC8C333F8
:10012800C4540F4420C8834004F456800146F6DFC7
:10013800E4800B0102040810204080900282E47ED3
:10014800019360BCA3FF543F30E509541FFEE493BC
:10015800A360010ECF54C025E060A840B8E493A383
:10016800FAE493A3F8E493A3C8C582C8CAC583CAAE
:10017800F0A3C8C582C8CAC583CADFE9DEE780BE66
:01028E00006F
:00000001FF
