:1000030000010002000400080010002000400080EE
:1000130001000200040008001000200040008000DE
:1002E400010C00010F00011A00010D0002180000AA
:0B02F500EF1FAC0670011E4C70F622DB
:10023E00D290759850438920438780758DF3758BC6
:10024E00F3D28ED2ACD2AFE4F53DF53EAE3EEE2506
:10025E00E0241DF8E6F4FCEE25E0241CF8E6F4FD9F
:10026E00E53E25E0FFE53D33FE74032FF582740075
:10027E003EF583E493FB74042FF58274003EF58300
:10028E00E493F542AF0412011E053EE53E700205F1
:10029E003DC39410E53D6480948040B0E51964013F
:0F02AE0045187002B2807F647E001202F58098BE
:03002300020026B2
:10002600C0E0C0F0C083C082C0D075D000C000C0A0
:0D00360001C002C003C004C005C006C00721
:1000430020980302010385993CC298C299E50F6485
:100053000160030200E3E50C64027023E50D640212
:10006300701DAF3C1202BDAE1A051A741C2EF8A601
:1000730007E51A64207008F50CF50DF50FF51AE580
:100083000C64037029E50D64027023853C0EE50EB4
:1000930064317009C290F51875190180087518004C
:1000A300751900D290750C00750F00750D00AF3CEB
:1000B3007E00EF64AB700BE50D64017005750C02F7
:1000C300800FEF64AC4E700EE50D64017008750C83
:1000D30003750D02800AE50D64017004F50FF50D3B
:1000E300AF3CEF64FD600FEF64FC600AEF64FA60FD
:1000F30005EF64F9700AE50D7006750F01750D01C2
:10010300D007D006D005D004D003D002D001D00050
:0B011300D0D0D082D083D0F0D0E032FA
:1002BD00E4FEFDEDC39408748094805017EF540153
:1002CD00FCEFC313FFEC2EFEED64076004EE25E09A
:0602DD00FE0D80DFAF06FC
:0102E30022F8
:02011E00A9072F
:10012000E4FFEFC39408748094805016E9C413135D
:1001300013540124FF92B4E925E0F9C2B6D2B60FF8
:1001400080E0E4FFEFC39408748094805016EDC4FF
:10015000131313540124FF92B4ED25E0FDC2B6D26F
:10016000B60F80E0E4FFEFC39408748094805016CB
:10017000EBC4131313540124FF92B4EB25E0FBC22C
:10018000B6D2B60F80E0E4FFEFC394087480948089
:100190005019E542C4131313540124FF92B4E542ED
:1001A00025E0F542C2B6D2B60F80DDC2B5D2B5C2E7
:0101B000B599
:0101B100222B
:030000000201B248
:0C01B200787FE4F6D8FD7581420201F967
:1001BE0002023EE493A3F8E493A34003F68001F217
:1001CE0008DFF48029E493A3F85407240CC8C33342
:1001DE00C4540F4420C8834004F456800146F6DF11
:1001EE00E4800B01020408102040809002E4E47EBB
:1001FE00019360BCA3FF543F30E509541FFEE49306
:10020E00A360010ECF54C025E060A840B8E493A3CC
:10021E00FAE493A3F8E493A3C8C582C8CAC583CAF7
:10022E00F0A3C8C582C8CAC583CADFE9DEE780BEAF
:0102F4000009
:00000001FF
