:1000030000010002000400080010002000400080EE
:1000130001000200040008001000200040008000DE
:0C02C700010C00010F00011800010D00E7
:0B02D400EF1FAC0670011E4C70F622FC
:10023200D280759850438920438780758DF3758BE2
:10024200F3D28ED2ACD2AFE4F53BF53CAE3CEE2518
:10025200E0241BF8E6F4FCEE25E0241AF8E6F4FDAF
:10026200E53C25E0FFE53B33FE74032FF582740085
:100272003EF583E493FB74042FF58274003EF5830C
:10028200E493F540AF04120112053CE53C7002050F
:0E0292003BC39410E53B6480948040B080A98B
:03002300020026B2
:10002600C0E0C0F0C083C082C0D075D000C000C0A0
:0D00360001C002C003C004C005C006C00721
:100043002098030200F785993AC298C299E50F6494
:100053000160030200D8E50C64027023E50D64021D
:10006300701DAF3A1202A0AE180518741A2EF8A626
:1000730007E51864207008F50CF50DF50FF518E584
:100083000C6403701EE50D64027018853A0EE50ECC
:1000930064317004C2808002D280750C00750F0039
:1000A300750D00AF3A7E00EF64AB700BE50D640194
:1000B3007005750C02800FEF64AC4E700EE50D6495
:1000C300017008750C03750D02800AE50D6401705B
:1000D30004F50FF50DAF3AEFF4600FEF64FC600A1F
:1000E300EF64FB6005EF64FA700AE50D7006750FA7
:0400F30001750D0185
:1000F700D007D006D005D004D003D002D001D0005D
:0B010700D0D0D082D083D0F0D0E03206
:1002A000E4FEFDEDC39408748094805017EF540170
:1002B000FCEFC313FFEC2EFEED64076004EE25E0B7
:0602C000FE0D80DFAF0619
:0102C6002215
:02011200A9073B
:10011400E4FFEFC39408748094805016E9C4131369
:1001240013540124FF92B4E925E0F9C2B6D2B60F04
:1001340080E0E4FFEFC39408748094805016EDC40B
:10014400131313540124FF92B4ED25E0FDC2B6D27B
:10015400B60F80E0E4FFEFC39408748094805016D7
:10016400EBC4131313540124FF92B4EB25E0FBC238
:10017400B6D2B60F80E0E4FFEFC394087480948095
:100184005019E540C4131313540124FF92B4E540FD
:1001940025E0F540C2B6D2B60F80DDC2B5D2B5C2F5
:0101A400B5A5
:0101A5002237
:030000000201A654
:0C01A600787FE4F6D8FD7581400201ED81
:1001B200020232E493A3F8E493A34003F68001F22F
:1001C20008DFF48029E493A3F85407240CC8C3334E
:1001D200C4540F4420C8834004F456800146F6DF1D
:1001E200E4800B01020408102040809002C7E47EE4
:1001F200019360BCA3FF543F30E509541FFEE49312
:10020200A360010ECF54C025E060A840B8E493A3D8
:10021200FAE493A3F8E493A3C8C582C8CAC583CA03
:10022200F0A3C8C582C8CAC583CADFE9DEE780BEBB
:0102D300002A
:00000001FF
